{
  "contractName": "dex",
  "abi": [
    {
      "anonymous": false,
      "inputs": [
        {
          "indexed": false,
          "internalType": "address",
          "name": "_oldOwner",
          "type": "address"
        },
        {
          "indexed": false,
          "internalType": "uint256",
          "name": "_amount",
          "type": "uint256"
        },
        {
          "indexed": false,
          "internalType": "address",
          "name": "_newOwner",
          "type": "address"
        }
      ],
      "name": "buyHappened",
      "type": "event"
    },
    {
      "anonymous": false,
      "inputs": [
        {
          "indexed": false,
          "internalType": "address",
          "name": "_owner",
          "type": "address"
        },
        {
          "indexed": false,
          "internalType": "address",
          "name": "_tokenAddr",
          "type": "address"
        },
        {
          "indexed": false,
          "internalType": "uint256",
          "name": "_lockAmount",
          "type": "uint256"
        },
        {
          "indexed": false,
          "internalType": "uint256",
          "name": "_blockNum",
          "type": "uint256"
        }
      ],
      "name": "lockHappened",
      "type": "event"
    },
    {
      "inputs": [
        {
          "internalType": "address",
          "name": "adrMapping",
          "type": "address"
        },
        {
          "internalType": "address",
          "name": "adrToken",
          "type": "address"
        }
      ],
      "name": "viewofferedTokenAmount",
      "outputs": [
        {
          "internalType": "uint256",
          "name": "",
          "type": "uint256"
        }
      ],
      "stateMutability": "view",
      "type": "function"
    },
    {
      "inputs": [
        {
          "internalType": "address",
          "name": "adrMapping",
          "type": "address"
        },
        {
          "internalType": "address",
          "name": "adrToken",
          "type": "address"
        }
      ],
      "name": "viewofferedTokenPrice",
      "outputs": [
        {
          "internalType": "uint256",
          "name": "",
          "type": "uint256"
        }
      ],
      "stateMutability": "view",
      "type": "function"
    },
    {
      "inputs": [
        {
          "internalType": "address",
          "name": "adr",
          "type": "address"
        },
        {
          "internalType": "uint256",
          "name": "key",
          "type": "uint256"
        }
      ],
      "name": "viewofferedNftOwner",
      "outputs": [
        {
          "internalType": "address",
          "name": "",
          "type": "address"
        }
      ],
      "stateMutability": "view",
      "type": "function"
    },
    {
      "inputs": [
        {
          "internalType": "address",
          "name": "adr",
          "type": "address"
        },
        {
          "internalType": "uint256",
          "name": "key",
          "type": "uint256"
        }
      ],
      "name": "viewofferedNftPrice",
      "outputs": [
        {
          "internalType": "uint256",
          "name": "",
          "type": "uint256"
        }
      ],
      "stateMutability": "view",
      "type": "function"
    },
    {
      "inputs": [
        {
          "internalType": "address",
          "name": "adr",
          "type": "address"
        },
        {
          "internalType": "uint256",
          "name": "key",
          "type": "uint256"
        }
      ],
      "name": "viewlockedNftOwner",
      "outputs": [
        {
          "internalType": "address",
          "name": "",
          "type": "address"
        }
      ],
      "stateMutability": "view",
      "type": "function"
    },
    {
      "inputs": [
        {
          "internalType": "address",
          "name": "adr",
          "type": "address"
        },
        {
          "internalType": "uint256",
          "name": "key",
          "type": "uint256"
        }
      ],
      "name": "viewlockedNftAddress",
      "outputs": [
        {
          "internalType": "address",
          "name": "",
          "type": "address"
        }
      ],
      "stateMutability": "view",
      "type": "function"
    },
    {
      "inputs": [
        {
          "internalType": "address",
          "name": "adr",
          "type": "address"
        },
        {
          "internalType": "uint256",
          "name": "key",
          "type": "uint256"
        }
      ],
      "name": "viewlockedNftAmount",
      "outputs": [
        {
          "internalType": "uint256",
          "name": "",
          "type": "uint256"
        }
      ],
      "stateMutability": "view",
      "type": "function"
    },
    {
      "inputs": [
        {
          "internalType": "address",
          "name": "adr",
          "type": "address"
        },
        {
          "internalType": "uint256",
          "name": "key",
          "type": "uint256"
        }
      ],
      "name": "viewlockedNftBHeight",
      "outputs": [
        {
          "internalType": "uint256",
          "name": "",
          "type": "uint256"
        }
      ],
      "stateMutability": "view",
      "type": "function"
    },
    {
      "inputs": [
        {
          "internalType": "address",
          "name": "adr",
          "type": "address"
        },
        {
          "internalType": "uint256",
          "name": "id",
          "type": "uint256"
        },
        {
          "internalType": "uint256",
          "name": "price",
          "type": "uint256"
        }
      ],
      "name": "offer",
      "outputs": [],
      "stateMutability": "nonpayable",
      "type": "function"
    },
    {
      "inputs": [
        {
          "internalType": "address",
          "name": "adr",
          "type": "address"
        },
        {
          "internalType": "uint256",
          "name": "id",
          "type": "uint256"
        }
      ],
      "name": "buy",
      "outputs": [],
      "stateMutability": "payable",
      "type": "function"
    },
    {
      "inputs": [
        {
          "internalType": "address",
          "name": "adr",
          "type": "address"
        },
        {
          "internalType": "uint256",
          "name": "id",
          "type": "uint256"
        },
        {
          "internalType": "uint256",
          "name": "amount",
          "type": "uint256"
        }
      ],
      "name": "lock",
      "outputs": [],
      "stateMutability": "nonpayable",
      "type": "function"
    },
    {
      "inputs": [
        {
          "internalType": "address",
          "name": "adr",
          "type": "address"
        },
        {
          "internalType": "uint256",
          "name": "id",
          "type": "uint256"
        },
        {
          "internalType": "address",
          "name": "tokenAdr",
          "type": "address"
        }
      ],
      "name": "mint",
      "outputs": [],
      "stateMutability": "nonpayable",
      "type": "function"
    },
    {
      "inputs": [
        {
          "internalType": "address",
          "name": "adr",
          "type": "address"
        },
        {
          "internalType": "uint256",
          "name": "id",
          "type": "uint256"
        }
      ],
      "name": "unlock",
      "outputs": [],
      "stateMutability": "nonpayable",
      "type": "function"
    },
    {
      "inputs": [
        {
          "internalType": "address",
          "name": "adr",
          "type": "address"
        },
        {
          "internalType": "uint256",
          "name": "price",
          "type": "uint256"
        },
        {
          "internalType": "uint256",
          "name": "amount",
          "type": "uint256"
        }
      ],
      "name": "sellErc20",
      "outputs": [],
      "stateMutability": "nonpayable",
      "type": "function"
    },
    {
      "inputs": [
        {
          "internalType": "address",
          "name": "adr",
          "type": "address"
        },
        {
          "internalType": "address",
          "name": "seller",
          "type": "address"
        },
        {
          "internalType": "uint256",
          "name": "amount",
          "type": "uint256"
        }
      ],
      "name": "buyErc20",
      "outputs": [],
      "stateMutability": "payable",
      "type": "function"
    }
  ],
  "bytecode": "0x608060405234801561001057600080fd5b50611c56806100206000396000f3fe6080604052600436106100e85760003560e01c8063ae7bc01f1161008a578063e2e04cab11610059578063e2e04cab146102fa578063f8ff657414610337578063fc5ac55a14610360578063fe563fd61461039d576100e8565b8063ae7bc01f1461023b578063cce7ec1314610278578063db8568ce14610294578063e2ab691d146102d1576100e8565b80630d4d1513116100c65780630d4d15131461018357806312ef4721146101ac57806374a46050146101e95780637eee288d14610212576100e8565b8063018b5db4146100ed5780630aa52f621461012a5780630c88fab014610167575b600080fd5b3480156100f957600080fd5b50610114600480360381019061010f9190611819565b6103da565b6040516101219190611868565b60405180910390f35b34801561013657600080fd5b50610151600480360381019061014c9190611819565b610437565b60405161015e9190611868565b60405180910390f35b610181600480360381019061017c9190611883565b610494565b005b34801561018f57600080fd5b506101aa60048036038101906101a591906118d6565b61067b565b005b3480156101b857600080fd5b506101d360048036038101906101ce9190611929565b6109c5565b6040516101e09190611868565b60405180910390f35b3480156101f557600080fd5b50610210600480360381019061020b9190611969565b610a4f565b005b34801561021e57600080fd5b5061023960048036038101906102349190611819565b610b92565b005b34801561024757600080fd5b50610262600480360381019061025d9190611819565b610ee4565b60405161026f91906119cb565b60405180910390f35b610292600480360381019061028d9190611819565b610f62565b005b3480156102a057600080fd5b506102bb60048036038101906102b69190611819565b61127e565b6040516102c891906119cb565b60405180910390f35b3480156102dd57600080fd5b506102f860048036038101906102f39190611969565b6112fb565b005b34801561030657600080fd5b50610321600480360381019061031c9190611819565b6114ed565b60405161032e9190611868565b60405180910390f35b34801561034357600080fd5b5061035e60048036038101906103599190611969565b61154b565b005b34801561036c57600080fd5b5061038760048036038101906103829190611929565b611679565b6040516103949190611868565b60405180910390f35b3480156103a957600080fd5b506103c460048036038101906103bf9190611819565b611703565b6040516103d191906119cb565b60405180910390f35b60008060008473ffffffffffffffffffffffffffffffffffffffff1673ffffffffffffffffffffffffffffffffffffffff168152602001908152602001600020600083815260200190815260200160002060020154905092915050565b60008060008473ffffffffffffffffffffffffffffffffffffffff1673ffffffffffffffffffffffffffffffffffffffff168152602001908152602001600020600083815260200190815260200160002060030154905092915050565b600260008473ffffffffffffffffffffffffffffffffffffffff1673ffffffffffffffffffffffffffffffffffffffff16815260200190815260200160002060008373ffffffffffffffffffffffffffffffffffffffff1673ffffffffffffffffffffffffffffffffffffffff16815260200190815260200160002060010154341461051f57600080fd5b600260008473ffffffffffffffffffffffffffffffffffffffff1673ffffffffffffffffffffffffffffffffffffffff16815260200190815260200160002060008373ffffffffffffffffffffffffffffffffffffffff1673ffffffffffffffffffffffffffffffffffffffff168152602001908152602001600020600080820160009055600182016000905550508273ffffffffffffffffffffffffffffffffffffffff166323b872dd3033846040518463ffffffff1660e01b81526004016105eb939291906119e6565b6020604051808303816000875af115801561060a573d6000803e3d6000fd5b505050506040513d601f19601f8201168201806040525081019061062e9190611a55565b508173ffffffffffffffffffffffffffffffffffffffff166108fc349081150290604051600060405180830381858888f19350505050158015610675573d6000803e3d6000fd5b50505050565b3373ffffffffffffffffffffffffffffffffffffffff166000808573ffffffffffffffffffffffffffffffffffffffff1673ffffffffffffffffffffffffffffffffffffffff168152602001908152602001600020600084815260200190815260200160002060000160009054906101000a900473ffffffffffffffffffffffffffffffffffffffff1673ffffffffffffffffffffffffffffffffffffffff161461072557600080fd5b4360406000808673ffffffffffffffffffffffffffffffffffffffff1673ffffffffffffffffffffffffffffffffffffffff1681526020019081526020016000206000858152602001908152602001600020600301546107859190611ab1565b111561079057600080fd5b6000808473ffffffffffffffffffffffffffffffffffffffff1673ffffffffffffffffffffffffffffffffffffffff1681526020019081526020016000206000838152602001908152602001600020600201548173ffffffffffffffffffffffffffffffffffffffff166318160ddd6040518163ffffffff1660e01b8152600401602060405180830381865afa15801561082e573d6000803e3d6000fd5b505050506040513d601f19601f820116820180604052508101906108529190611afa565b1461085c57600080fd5b806000808573ffffffffffffffffffffffffffffffffffffffff1673ffffffffffffffffffffffffffffffffffffffff168152602001908152602001600020600084815260200190815260200160002060010160006101000a81548173ffffffffffffffffffffffffffffffffffffffff021916908373ffffffffffffffffffffffffffffffffffffffff1602179055508073ffffffffffffffffffffffffffffffffffffffff166323b872dd30336000808873ffffffffffffffffffffffffffffffffffffffff1673ffffffffffffffffffffffffffffffffffffffff1681526020019081526020016000206000878152602001908152602001600020600201546040518463ffffffff1660e01b815260040161097c939291906119e6565b6020604051808303816000875af115801561099b573d6000803e3d6000fd5b505050506040513d601f19601f820116820180604052508101906109bf9190611a55565b50505050565b6000600260008473ffffffffffffffffffffffffffffffffffffffff1673ffffffffffffffffffffffffffffffffffffffff16815260200190815260200160002060008373ffffffffffffffffffffffffffffffffffffffff1673ffffffffffffffffffffffffffffffffffffffff16815260200190815260200160002060010154905092915050565b8273ffffffffffffffffffffffffffffffffffffffff166323b872dd3330856040518463ffffffff1660e01b8152600401610a8c939291906119e6565b600060405180830381600087803b158015610aa657600080fd5b505af1158015610aba573d6000803e3d6000fd5b5050505060405180604001604052803373ffffffffffffffffffffffffffffffffffffffff16815260200182815250600160008573ffffffffffffffffffffffffffffffffffffffff1673ffffffffffffffffffffffffffffffffffffffff168152602001908152602001600020600084815260200190815260200160002060008201518160000160006101000a81548173ffffffffffffffffffffffffffffffffffffffff021916908373ffffffffffffffffffffffffffffffffffffffff16021790555060208201518160010155905050505050565b4360806000808573ffffffffffffffffffffffffffffffffffffffff1673ffffffffffffffffffffffffffffffffffffffff168152602001908152602001600020600084815260200190815260200160002060030154610bf29190611ab1565b1115610bfd57600080fd5b3073ffffffffffffffffffffffffffffffffffffffff166000808473ffffffffffffffffffffffffffffffffffffffff1673ffffffffffffffffffffffffffffffffffffffff168152602001908152602001600020600083815260200190815260200160002060010160009054906101000a900473ffffffffffffffffffffffffffffffffffffffff1673ffffffffffffffffffffffffffffffffffffffff16148015610d4757503373ffffffffffffffffffffffffffffffffffffffff166000808473ffffffffffffffffffffffffffffffffffffffff1673ffffffffffffffffffffffffffffffffffffffff168152602001908152602001600020600083815260200190815260200160002060000160009054906101000a900473ffffffffffffffffffffffffffffffffffffffff1673ffffffffffffffffffffffffffffffffffffffff16145b80610e32575060008060008473ffffffffffffffffffffffffffffffffffffffff1673ffffffffffffffffffffffffffffffffffffffff168152602001908152602001600020600083815260200190815260200160002060010160009054906101000a900473ffffffffffffffffffffffffffffffffffffffff1673ffffffffffffffffffffffffffffffffffffffff166318160ddd6040518163ffffffff1660e01b8152600401602060405180830381865afa158015610e0c573d6000803e3d6000fd5b505050506040513d601f19601f82011682018060405250810190610e309190611afa565b145b610e71576040517f08c379a0000000000000000000000000000000000000000000000000000000008152600401610e6890611b84565b60405180910390fd5b8173ffffffffffffffffffffffffffffffffffffffff166323b872dd3033846040518463ffffffff1660e01b8152600401610eae939291906119e6565b600060405180830381600087803b158015610ec857600080fd5b505af1158015610edc573d6000803e3d6000fd5b505050505050565b6000600160008473ffffffffffffffffffffffffffffffffffffffff1673ffffffffffffffffffffffffffffffffffffffff168152602001908152602001600020600083815260200190815260200160002060000160009054906101000a900473ffffffffffffffffffffffffffffffffffffffff16905092915050565b6000600160008473ffffffffffffffffffffffffffffffffffffffff1673ffffffffffffffffffffffffffffffffffffffff16815260200190815260200160002060008381526020019081526020016000206001015403610fc257600080fd5b600160008373ffffffffffffffffffffffffffffffffffffffff1673ffffffffffffffffffffffffffffffffffffffff168152602001908152602001600020600082815260200190815260200160002060010154341461102157600080fd5b600160008373ffffffffffffffffffffffffffffffffffffffff1673ffffffffffffffffffffffffffffffffffffffff168152602001908152602001600020600082815260200190815260200160002060000160009054906101000a900473ffffffffffffffffffffffffffffffffffffffff1673ffffffffffffffffffffffffffffffffffffffff166108fc349081150290604051600060405180830381858888f193505050501580156110da573d6000803e3d6000fd5b50600160008373ffffffffffffffffffffffffffffffffffffffff1673ffffffffffffffffffffffffffffffffffffffff1681526020019081526020016000206000828152602001908152602001600020600080820160006101000a81549073ffffffffffffffffffffffffffffffffffffffff0219169055600182016000905550508173ffffffffffffffffffffffffffffffffffffffff166323b872dd3033846040518463ffffffff1660e01b815260040161119a939291906119e6565b600060405180830381600087803b1580156111b457600080fd5b505af11580156111c8573d6000803e3d6000fd5b505050507f332814809c15f41aae3b0b58cead592eb530b453165676dfbd6de5d6b369d9a9600160008473ffffffffffffffffffffffffffffffffffffffff1673ffffffffffffffffffffffffffffffffffffffff168152602001908152602001600020600083815260200190815260200160002060000160009054906101000a900473ffffffffffffffffffffffffffffffffffffffff16343360405161127293929190611ba4565b60405180910390a15050565b60008060008473ffffffffffffffffffffffffffffffffffffffff1673ffffffffffffffffffffffffffffffffffffffff168152602001908152602001600020600083815260200190815260200160002060000160009054906101000a900473ffffffffffffffffffffffffffffffffffffffff16905092915050565b8273ffffffffffffffffffffffffffffffffffffffff166323b872dd3330856040518463ffffffff1660e01b8152600401611338939291906119e6565b600060405180830381600087803b15801561135257600080fd5b505af1158015611366573d6000803e3d6000fd5b5050505060405180608001604052803373ffffffffffffffffffffffffffffffffffffffff1681526020013073ffffffffffffffffffffffffffffffffffffffff168152602001828152602001438152506000808573ffffffffffffffffffffffffffffffffffffffff1673ffffffffffffffffffffffffffffffffffffffff168152602001908152602001600020600084815260200190815260200160002060008201518160000160006101000a81548173ffffffffffffffffffffffffffffffffffffffff021916908373ffffffffffffffffffffffffffffffffffffffff16021790555060208201518160010160006101000a81548173ffffffffffffffffffffffffffffffffffffffff021916908373ffffffffffffffffffffffffffffffffffffffff16021790555060408201518160020155606082015181600301559050507f54bcf283eb20177ff3b52de6a66d9f9a6cebefeddd5583413635698e1d9f0d47333083436040516114e09493929190611bdb565b60405180910390a1505050565b6000600160008473ffffffffffffffffffffffffffffffffffffffff1673ffffffffffffffffffffffffffffffffffffffff168152602001908152602001600020600083815260200190815260200160002060010154905092915050565b8273ffffffffffffffffffffffffffffffffffffffff166323b872dd3330846040518463ffffffff1660e01b8152600401611588939291906119e6565b6020604051808303816000875af11580156115a7573d6000803e3d6000fd5b505050506040513d601f19601f820116820180604052508101906115cb9190611a55565b50604051806040016040528082815260200183815250600260008573ffffffffffffffffffffffffffffffffffffffff1673ffffffffffffffffffffffffffffffffffffffff16815260200190815260200160002060003373ffffffffffffffffffffffffffffffffffffffff1673ffffffffffffffffffffffffffffffffffffffff1681526020019081526020016000206000820151816000015560208201518160010155905050505050565b6000600260008473ffffffffffffffffffffffffffffffffffffffff1673ffffffffffffffffffffffffffffffffffffffff16815260200190815260200160002060008373ffffffffffffffffffffffffffffffffffffffff1673ffffffffffffffffffffffffffffffffffffffff16815260200190815260200160002060000154905092915050565b60008060008473ffffffffffffffffffffffffffffffffffffffff1673ffffffffffffffffffffffffffffffffffffffff168152602001908152602001600020600083815260200190815260200160002060010160009054906101000a900473ffffffffffffffffffffffffffffffffffffffff16905092915050565b600080fd5b600073ffffffffffffffffffffffffffffffffffffffff82169050919050565b60006117b082611785565b9050919050565b6117c0816117a5565b81146117cb57600080fd5b50565b6000813590506117dd816117b7565b92915050565b6000819050919050565b6117f6816117e3565b811461180157600080fd5b50565b600081359050611813816117ed565b92915050565b600080604083850312156118305761182f611780565b5b600061183e858286016117ce565b925050602061184f85828601611804565b9150509250929050565b611862816117e3565b82525050565b600060208201905061187d6000830184611859565b92915050565b60008060006060848603121561189c5761189b611780565b5b60006118aa868287016117ce565b93505060206118bb868287016117ce565b92505060406118cc86828701611804565b9150509250925092565b6000806000606084860312156118ef576118ee611780565b5b60006118fd868287016117ce565b935050602061190e86828701611804565b925050604061191f868287016117ce565b9150509250925092565b600080604083850312156119405761193f611780565b5b600061194e858286016117ce565b925050602061195f858286016117ce565b9150509250929050565b60008060006060848603121561198257611981611780565b5b6000611990868287016117ce565b93505060206119a186828701611804565b92505060406119b286828701611804565b9150509250925092565b6119c5816117a5565b82525050565b60006020820190506119e060008301846119bc565b92915050565b60006060820190506119fb60008301866119bc565b611a0860208301856119bc565b611a156040830184611859565b949350505050565b60008115159050919050565b611a3281611a1d565b8114611a3d57600080fd5b50565b600081519050611a4f81611a29565b92915050565b600060208284031215611a6b57611a6a611780565b5b6000611a7984828501611a40565b91505092915050565b7f4e487b7100000000000000000000000000000000000000000000000000000000600052601160045260246000fd5b6000611abc826117e3565b9150611ac7836117e3565b9250828201905080821115611adf57611ade611a82565b5b92915050565b600081519050611af4816117ed565b92915050565b600060208284031215611b1057611b0f611780565b5b6000611b1e84828501611ae5565b91505092915050565b600082825260208201905092915050565b7f63616e6e6f7420626520756e6c6f636b65640000000000000000000000000000600082015250565b6000611b6e601283611b27565b9150611b7982611b38565b602082019050919050565b60006020820190508181036000830152611b9d81611b61565b9050919050565b6000606082019050611bb960008301866119bc565b611bc66020830185611859565b611bd360408301846119bc565b949350505050565b6000608082019050611bf060008301876119bc565b611bfd60208301866119bc565b611c0a6040830185611859565b611c176060830184611859565b9594505050505056fea264697066735822122014d376726a61e8ef0daeeaf64da06c7f91915f68da5fb0a9572ffb8de032086464736f6c63430008110033",
  "immutableReferences": {},
  "source": "// SPDX-License-Identifier: MIT\r\npragma solidity ^0.8.4;\r\nimport \"@openzeppelin/contracts/interfaces/IERC20.sol\";\r\nimport \"@openzeppelin/contracts/interfaces/IERC721.sol\";\r\ncontract dex{\r\n    struct nft{\r\n        address owner;\r\n        uint256 price;\r\n    }\r\n\r\n    struct lockedNft{\r\n        address owner;\r\n        address tokenAddress; // ADDRESS WILL BE EQUAL TO THIS IF IT IS NOT MINTED\r\n        uint256 tokenAmount;\r\n        uint256 blockHeight;\r\n    }\r\n\r\n    struct token {\r\n        uint256 amount;\r\n        uint256 price;\r\n    }\r\n\r\n    mapping(address => mapping(uint256 => lockedNft)) private lockedNfts;\r\n    mapping(address => mapping(uint256 => nft)) private offeredNfts; // address = nft contract address , uint256 = tokenId\r\n    mapping(address => mapping(address => token)) private offeredTokens;\r\n\r\n    \r\n    event buyHappened(address _oldOwner, uint256 _amount, address _newOwner);\r\n    event lockHappened(address _owner, address _tokenAddr, uint256 _lockAmount, uint256 _blockNum);\r\n\r\n\r\n\r\n// Private mapping-of-mapping variables accessed, and each struct's member can be viewed:\r\n\r\n//offeredTokens getters\r\n\r\n    function viewofferedTokenAmount(address adrMapping, address adrToken) public view returns (uint256) { //index limit may require this and followings\r\n        return offeredTokens[adrMapping][adrToken].amount;\r\n    }\r\n\r\n    function viewofferedTokenPrice(address adrMapping, address adrToken) public view returns (uint256) {\r\n        return offeredTokens[adrMapping][adrToken].price;\r\n    }\r\n\r\n\r\n//offeredNfts getters\r\n\r\n\r\n    function viewofferedNftOwner(address adr, uint key) public view returns (address) { //index limit may require this and followings\r\n        return offeredNfts[adr][key].owner;\r\n    }\r\n\r\n    function viewofferedNftPrice(address adr, uint key) public view returns (uint256) {\r\n        return offeredNfts[adr][key].price;\r\n    }\r\n\r\n//lockedNfts getters\r\n\r\n    function viewlockedNftOwner(address adr, uint key) public view returns (address) { //index limit may require this and followings\r\n        return lockedNfts[adr][key].owner;\r\n    }\r\n\r\n    function viewlockedNftAddress(address adr, uint key) public view returns (address) {\r\n        return lockedNfts[adr][key].tokenAddress;\r\n    }\r\n\r\n    function viewlockedNftAmount(address adr, uint key) public view returns (uint256) {\r\n        return lockedNfts[adr][key].tokenAmount;\r\n    }\r\n\r\n    function viewlockedNftBHeight(address adr, uint key) public view returns (uint256) {\r\n        return lockedNfts[adr][key].blockHeight;\r\n    }\r\n\r\n/////////////////////////////////////////////////////////////////////////////////////////////////////////////////\r\n\r\n\r\n\r\n\r\n    function offer(address adr, uint256 id, uint256 price) public {\r\n        IERC721(adr).transferFrom(msg.sender,address(this),id);\r\n        // TODO: Security breach, will be fixed by using a function that does\r\n        // overflow safe multiplication\r\n        offeredNfts[adr][id] = nft(msg.sender, price);\r\n    }\r\n\r\n\r\n\r\n    function buy(address adr, uint256 id) public payable {\r\n        require(offeredNfts[adr][id].price != 0);\r\n        require(msg.value == offeredNfts[adr][id].price);\r\n        payable(offeredNfts[adr][id].owner).transfer(msg.value);\r\n        delete offeredNfts[adr][id]; // DELETE ?\r\n        IERC721(adr).transferFrom(address(this),msg.sender,id);\r\n\r\n        emit buyHappened(offeredNfts[adr][id].owner, msg.value, msg.sender);\r\n    }\r\n\r\n\r\n    \r\n    function lock(address adr, uint256 id, uint256 amount) public {\r\n        IERC721(adr).transferFrom(msg.sender,address(this),id); //Msg.sender dan contract adresine kitler, Approve() needed diye okudum ?\r\n        lockedNfts[adr][id] = lockedNft(msg.sender,address(this),amount,block.number);\r\n\r\n        emit lockHappened(msg.sender, address(this), amount, block.number);\r\n    }\r\n\r\n    function mint(address adr, uint256 id, address tokenAdr) public {\r\n        require(lockedNfts[adr][id].owner == msg.sender);\r\n        require(lockedNfts[adr][id].blockHeight+64 <= block.number );\r\n        require(IERC20(tokenAdr).totalSupply() == lockedNfts[adr][id].tokenAmount ); // or > 0\r\n        lockedNfts[adr][id].tokenAddress = tokenAdr;\r\n        IERC20(tokenAdr).transferFrom(address(this), msg.sender, lockedNfts[adr][id].tokenAmount);\r\n    }\r\n\r\n    //erc 20 tokeni oldugundan emin ol\r\n    function unlock(address adr, uint256 id) public {\r\n        require(lockedNfts[adr][id].blockHeight+128 <= block.number);\r\n        require(((lockedNfts[adr][id].tokenAddress == address(this)) && lockedNfts[adr][id].owner == msg.sender) \r\n                || (IERC20(lockedNfts[adr][id].tokenAddress).totalSupply() == 0), \"cannot be unlocked\");\r\n        // TODO: make sure the person who invokes this function owns all tokens.\r\n            IERC721(adr).transferFrom(address(this),msg.sender,id);\r\n    }\r\n    \r\n    function sellErc20(address adr, uint256 price, uint256 amount) public{\r\n        IERC20(adr).transferFrom(msg.sender,address(this),amount);\r\n        offeredTokens[adr][msg.sender] = token(amount,price);\r\n    }\r\n    function buyErc20(address adr, address seller, uint256 amount ) public payable {\r\n        require(msg.value == offeredTokens[adr][seller].price);\r\n        delete offeredTokens[adr][seller]; // DELETE ?\r\n        IERC20(adr).transferFrom(address(this),msg.sender,amount);\r\n        payable(seller).transfer(msg.value);\r\n        \r\n    }\r\n}\r\n    ",
  "sourcePath": "C:\\Users\\Baturay\\Desktop\\LibrArt\\48001_term_project\\contracts\\utility.sol",
  "compiler": {
    "name": "solc",
    "version": "0.8.17+commit.8df45f5f.Emscripten.clang"
  },
  "schemaVersion": "3.4.10",
  "updatedAt": "2023-01-13T12:31:55.269Z",
  "devdoc": {
    "kind": "dev",
    "methods": {},
    "version": 1
  },
  "userdoc": {
    "kind": "user",
    "methods": {},
    "version": 1
  }
}