{
  "contractName": "dex",
  "abi": [
    {
      "inputs": [
        {
          "internalType": "address",
          "name": "adr",
          "type": "address"
        },
        {
          "internalType": "uint256",
          "name": "id",
          "type": "uint256"
        },
        {
          "internalType": "uint256",
          "name": "price",
          "type": "uint256"
        }
      ],
      "name": "offer",
      "outputs": [],
      "stateMutability": "nonpayable",
      "type": "function"
    },
    {
      "inputs": [
        {
          "internalType": "address",
          "name": "adr",
          "type": "address"
        },
        {
          "internalType": "uint256",
          "name": "id",
          "type": "uint256"
        }
      ],
      "name": "buy",
      "outputs": [],
      "stateMutability": "payable",
      "type": "function"
    },
    {
      "inputs": [
        {
          "internalType": "address",
          "name": "adr",
          "type": "address"
        },
        {
          "internalType": "uint256",
          "name": "id",
          "type": "uint256"
        },
        {
          "internalType": "uint256",
          "name": "amount",
          "type": "uint256"
        }
      ],
      "name": "lock",
      "outputs": [],
      "stateMutability": "nonpayable",
      "type": "function"
    },
    {
      "inputs": [
        {
          "internalType": "address",
          "name": "adr",
          "type": "address"
        },
        {
          "internalType": "uint256",
          "name": "id",
          "type": "uint256"
        },
        {
          "internalType": "address",
          "name": "tokenAdr",
          "type": "address"
        }
      ],
      "name": "mint",
      "outputs": [],
      "stateMutability": "nonpayable",
      "type": "function"
    },
    {
      "inputs": [
        {
          "internalType": "address",
          "name": "adr",
          "type": "address"
        },
        {
          "internalType": "uint256",
          "name": "id",
          "type": "uint256"
        }
      ],
      "name": "unlock",
      "outputs": [],
      "stateMutability": "nonpayable",
      "type": "function"
    },
    {
      "inputs": [
        {
          "internalType": "address",
          "name": "adr",
          "type": "address"
        },
        {
          "internalType": "uint256",
          "name": "price",
          "type": "uint256"
        },
        {
          "internalType": "uint256",
          "name": "amount",
          "type": "uint256"
        }
      ],
      "name": "sellErc20",
      "outputs": [],
      "stateMutability": "nonpayable",
      "type": "function"
    },
    {
      "inputs": [
        {
          "internalType": "address",
          "name": "adr",
          "type": "address"
        },
        {
          "internalType": "address",
          "name": "seller",
          "type": "address"
        },
        {
          "internalType": "uint256",
          "name": "amount",
          "type": "uint256"
        }
      ],
      "name": "buyErc20",
      "outputs": [],
      "stateMutability": "payable",
      "type": "function"
    }
  ],
  "bytecode": "0x608060405234801561001057600080fd5b506113c3806100206000396000f3fe6080604052600436106100705760003560e01c80637eee288d1161004e5780637eee288d146100e3578063cce7ec131461010c578063e2ab691d14610128578063f8ff65741461015157610070565b80630c88fab0146100755780630d4d15131461009157806374a46050146100ba575b600080fd5b61008f600480360381019061008a9190611114565b61017a565b005b34801561009d57600080fd5b506100b860048036038101906100b39190611167565b61035f565b005b3480156100c657600080fd5b506100e160048036038101906100dc91906111ba565b61063c565b005b3480156100ef57600080fd5b5061010a6004803603810190610105919061120d565b61077f565b005b6101266004803603810190610121919061120d565b610b2a565b005b34801561013457600080fd5b5061014f600480360381019061014a91906111ba565b610d98565b005b34801561015d57600080fd5b50610178600480360381019061017391906111ba565b610f4d565b005b600260008473ffffffffffffffffffffffffffffffffffffffff1673ffffffffffffffffffffffffffffffffffffffff16815260200190815260200160002060008373ffffffffffffffffffffffffffffffffffffffff1673ffffffffffffffffffffffffffffffffffffffff16815260200190815260200160002060010154341461020557600080fd5b600260008473ffffffffffffffffffffffffffffffffffffffff1673ffffffffffffffffffffffffffffffffffffffff16815260200190815260200160002060008373ffffffffffffffffffffffffffffffffffffffff1673ffffffffffffffffffffffffffffffffffffffff168152602001908152602001600020600080820160009055600182016000905550508273ffffffffffffffffffffffffffffffffffffffff1663a9059cbb33836040518363ffffffff1660e01b81526004016102cf92919061126b565b6020604051808303816000875af11580156102ee573d6000803e3d6000fd5b505050506040513d601f19601f8201168201806040525081019061031291906112cc565b508173ffffffffffffffffffffffffffffffffffffffff166108fc349081150290604051600060405180830381858888f19350505050158015610359573d6000803e3d6000fd5b50505050565b3373ffffffffffffffffffffffffffffffffffffffff166000808573ffffffffffffffffffffffffffffffffffffffff1673ffffffffffffffffffffffffffffffffffffffff168152602001908152602001600020600084815260200190815260200160002060000160009054906101000a900473ffffffffffffffffffffffffffffffffffffffff1673ffffffffffffffffffffffffffffffffffffffff161461040957600080fd5b6000808473ffffffffffffffffffffffffffffffffffffffff1673ffffffffffffffffffffffffffffffffffffffff1681526020019081526020016000206000838152602001908152602001600020600201548173ffffffffffffffffffffffffffffffffffffffff166318160ddd6040518163ffffffff1660e01b8152600401602060405180830381865afa1580156104a7573d6000803e3d6000fd5b505050506040513d601f19601f820116820180604052508101906104cb919061130e565b146104d557600080fd5b806000808573ffffffffffffffffffffffffffffffffffffffff1673ffffffffffffffffffffffffffffffffffffffff168152602001908152602001600020600084815260200190815260200160002060010160006101000a81548173ffffffffffffffffffffffffffffffffffffffff021916908373ffffffffffffffffffffffffffffffffffffffff1602179055508073ffffffffffffffffffffffffffffffffffffffff1663a9059cbb336000808773ffffffffffffffffffffffffffffffffffffffff1673ffffffffffffffffffffffffffffffffffffffff1681526020019081526020016000206000868152602001908152602001600020600201546040518363ffffffff1660e01b81526004016105f392919061126b565b6020604051808303816000875af1158015610612573d6000803e3d6000fd5b505050506040513d601f19601f8201168201806040525081019061063691906112cc565b50505050565b8273ffffffffffffffffffffffffffffffffffffffff166323b872dd3330856040518463ffffffff1660e01b81526004016106799392919061133b565b600060405180830381600087803b15801561069357600080fd5b505af11580156106a7573d6000803e3d6000fd5b5050505060405180604001604052803373ffffffffffffffffffffffffffffffffffffffff16815260200182815250600160008573ffffffffffffffffffffffffffffffffffffffff1673ffffffffffffffffffffffffffffffffffffffff168152602001908152602001600020600084815260200190815260200160002060008201518160000160006101000a81548173ffffffffffffffffffffffffffffffffffffffff021916908373ffffffffffffffffffffffffffffffffffffffff16021790555060208201518160010155905050505050565b3073ffffffffffffffffffffffffffffffffffffffff166000808473ffffffffffffffffffffffffffffffffffffffff1673ffffffffffffffffffffffffffffffffffffffff168152602001908152602001600020600083815260200190815260200160002060010160009054906101000a900473ffffffffffffffffffffffffffffffffffffffff1673ffffffffffffffffffffffffffffffffffffffff161480156108c957503373ffffffffffffffffffffffffffffffffffffffff166000808473ffffffffffffffffffffffffffffffffffffffff1673ffffffffffffffffffffffffffffffffffffffff168152602001908152602001600020600083815260200190815260200160002060000160009054906101000a900473ffffffffffffffffffffffffffffffffffffffff1673ffffffffffffffffffffffffffffffffffffffff16145b80610a2c57508173ffffffffffffffffffffffffffffffffffffffff166370a08231336040518263ffffffff1660e01b81526004016109089190611372565b602060405180830381865afa158015610925573d6000803e3d6000fd5b505050506040513d601f19601f82011682018060405250810190610949919061130e565b6000808473ffffffffffffffffffffffffffffffffffffffff1673ffffffffffffffffffffffffffffffffffffffff168152602001908152602001600020600083815260200190815260200160002060010160009054906101000a900473ffffffffffffffffffffffffffffffffffffffff1673ffffffffffffffffffffffffffffffffffffffff166318160ddd6040518163ffffffff1660e01b8152600401602060405180830381865afa158015610a06573d6000803e3d6000fd5b505050506040513d601f19601f82011682018060405250810190610a2a919061130e565b145b610a3557600080fd5b600160008373ffffffffffffffffffffffffffffffffffffffff1673ffffffffffffffffffffffffffffffffffffffff1681526020019081526020016000206000828152602001908152602001600020600080820160006101000a81549073ffffffffffffffffffffffffffffffffffffffff0219169055600182016000905550508173ffffffffffffffffffffffffffffffffffffffff166323b872dd3033846040518463ffffffff1660e01b8152600401610af49392919061133b565b600060405180830381600087803b158015610b0e57600080fd5b505af1158015610b22573d6000803e3d6000fd5b505050505050565b6000600160008473ffffffffffffffffffffffffffffffffffffffff1673ffffffffffffffffffffffffffffffffffffffff16815260200190815260200160002060008381526020019081526020016000206001015403610b8a57600080fd5b600160008373ffffffffffffffffffffffffffffffffffffffff1673ffffffffffffffffffffffffffffffffffffffff1681526020019081526020016000206000828152602001908152602001600020600101543414610be957600080fd5b600160008373ffffffffffffffffffffffffffffffffffffffff1673ffffffffffffffffffffffffffffffffffffffff168152602001908152602001600020600082815260200190815260200160002060000160009054906101000a900473ffffffffffffffffffffffffffffffffffffffff1673ffffffffffffffffffffffffffffffffffffffff166108fc349081150290604051600060405180830381858888f19350505050158015610ca2573d6000803e3d6000fd5b50600160008373ffffffffffffffffffffffffffffffffffffffff1673ffffffffffffffffffffffffffffffffffffffff1681526020019081526020016000206000828152602001908152602001600020600080820160006101000a81549073ffffffffffffffffffffffffffffffffffffffff0219169055600182016000905550508173ffffffffffffffffffffffffffffffffffffffff166323b872dd3033846040518463ffffffff1660e01b8152600401610d629392919061133b565b600060405180830381600087803b158015610d7c57600080fd5b505af1158015610d90573d6000803e3d6000fd5b505050505050565b8273ffffffffffffffffffffffffffffffffffffffff166323b872dd3330856040518463ffffffff1660e01b8152600401610dd59392919061133b565b600060405180830381600087803b158015610def57600080fd5b505af1158015610e03573d6000803e3d6000fd5b5050505060405180608001604052803373ffffffffffffffffffffffffffffffffffffffff1681526020013073ffffffffffffffffffffffffffffffffffffffff168152602001828152602001438152506000808573ffffffffffffffffffffffffffffffffffffffff1673ffffffffffffffffffffffffffffffffffffffff168152602001908152602001600020600084815260200190815260200160002060008201518160000160006101000a81548173ffffffffffffffffffffffffffffffffffffffff021916908373ffffffffffffffffffffffffffffffffffffffff16021790555060208201518160010160006101000a81548173ffffffffffffffffffffffffffffffffffffffff021916908373ffffffffffffffffffffffffffffffffffffffff1602179055506040820151816002015560608201518160030155905050505050565b8273ffffffffffffffffffffffffffffffffffffffff166323b872dd3330846040518463ffffffff1660e01b8152600401610f8a9392919061133b565b6020604051808303816000875af1158015610fa9573d6000803e3d6000fd5b505050506040513d601f19601f82011682018060405250810190610fcd91906112cc565b50604051806040016040528082815260200183815250600260008573ffffffffffffffffffffffffffffffffffffffff1673ffffffffffffffffffffffffffffffffffffffff16815260200190815260200160002060003373ffffffffffffffffffffffffffffffffffffffff1673ffffffffffffffffffffffffffffffffffffffff1681526020019081526020016000206000820151816000015560208201518160010155905050505050565b600080fd5b600073ffffffffffffffffffffffffffffffffffffffff82169050919050565b60006110ab82611080565b9050919050565b6110bb816110a0565b81146110c657600080fd5b50565b6000813590506110d8816110b2565b92915050565b6000819050919050565b6110f1816110de565b81146110fc57600080fd5b50565b60008135905061110e816110e8565b92915050565b60008060006060848603121561112d5761112c61107b565b5b600061113b868287016110c9565b935050602061114c868287016110c9565b925050604061115d868287016110ff565b9150509250925092565b6000806000606084860312156111805761117f61107b565b5b600061118e868287016110c9565b935050602061119f868287016110ff565b92505060406111b0868287016110c9565b9150509250925092565b6000806000606084860312156111d3576111d261107b565b5b60006111e1868287016110c9565b93505060206111f2868287016110ff565b9250506040611203868287016110ff565b9150509250925092565b600080604083850312156112245761122361107b565b5b6000611232858286016110c9565b9250506020611243858286016110ff565b9150509250929050565b611256816110a0565b82525050565b611265816110de565b82525050565b6000604082019050611280600083018561124d565b61128d602083018461125c565b9392505050565b60008115159050919050565b6112a981611294565b81146112b457600080fd5b50565b6000815190506112c6816112a0565b92915050565b6000602082840312156112e2576112e161107b565b5b60006112f0848285016112b7565b91505092915050565b600081519050611308816110e8565b92915050565b6000602082840312156113245761132361107b565b5b6000611332848285016112f9565b91505092915050565b6000606082019050611350600083018661124d565b61135d602083018561124d565b61136a604083018461125c565b949350505050565b6000602082019050611387600083018461124d565b9291505056fea2646970667358221220a58fcc2e7da230a0ec83a8f9d9fbe5a237d3f99c28274b8b87cbb6a65f226c5964736f6c63430008110033",
  "immutableReferences": {},
  "source": "// SPDX-License-Identifier: MIT\r\npragma solidity ^0.8.4;\r\nimport \"@openzeppelin/contracts/interfaces/IERC20.sol\";\r\nimport \"@openzeppelin/contracts/interfaces/IERC721.sol\";\r\ncontract dex{\r\n    struct nft{\r\n        address owner;\r\n        uint256 price;\r\n    }\r\n\r\n    struct lockedNft{\r\n        address owner;\r\n        address tokenAddress; // ADDRESS WILL BE EQUAL TO THIS IF IT IS NOT MINTED\r\n        uint256 tokenAmount;\r\n        uint256 blockHeight;\r\n    }\r\n\r\n    struct token {\r\n        uint256 amount;\r\n        uint256 price;\r\n    }\r\n\r\n    mapping(address => mapping(uint256 => lockedNft)) private lockedNfts;\r\n    mapping(address => mapping(uint256 => nft)) private offeredNfts; // address = nft contract address , uint256 = tokenId\r\n    mapping(address => mapping(address => token)) private offeredTokens;\r\n\r\n    \r\n\r\n/////////////////////////////////////////////////////////////////////////////////////////////////////////////////\r\n\r\n    function offer(address adr, uint256 id, uint256 price) public {\r\n        IERC721(adr).transferFrom(msg.sender,address(this),id);\r\n        // TODO: Security breach, will be fixed by using a function that does\r\n        // overflow safe multiplication\r\n        offeredNfts[adr][id] = nft(msg.sender, price);\r\n    }\r\n\r\n\r\n\r\n    function buy(address adr, uint256 id) public payable {\r\n        require(offeredNfts[adr][id].price != 0);\r\n        require(msg.value == offeredNfts[adr][id].price);\r\n        payable(offeredNfts[adr][id].owner).transfer(msg.value);\r\n        delete offeredNfts[adr][id]; // DELETE ?\r\n        IERC721(adr).transferFrom(address(this),msg.sender,id);\r\n\r\n    }\r\n\r\n\r\n \r\n    function lock(address adr, uint256 id, uint256 amount) public {\r\n        IERC721(adr).transferFrom(msg.sender,address(this),id); //Msg.sender dan contract adresine kitler, Approve() needed diye okudum ?\r\n        lockedNfts[adr][id] = lockedNft(msg.sender,address(this),amount,block.number);\r\n\r\n    }\r\n    \r\n\r\n\r\n    function mint(address adr, uint256 id, address tokenAdr) public {\r\n        require(lockedNfts[adr][id].owner == msg.sender);\r\n        // require(lockedNfts[adr][id].blockHeight+64 <= block.number );\r\n        require(IERC20(tokenAdr).totalSupply() == lockedNfts[adr][id].tokenAmount ); // or > 0\r\n        lockedNfts[adr][id].tokenAddress = tokenAdr;\r\n        IERC20(tokenAdr).transfer(msg.sender, lockedNfts[adr][id].tokenAmount);\r\n\r\n    }\r\n\r\n    \r\n    //erc 20 tokeni oldugundan emin ol\r\n    function unlock(address adr, uint256 id) public {\r\n        // require(lockedNfts[adr][id].blockHeight+128 <= block.number);\r\n        require(((lockedNfts[adr][id].tokenAddress == address(this)) && lockedNfts[adr][id].owner == msg.sender) \r\n                || (IERC20(lockedNfts[adr][id].tokenAddress).totalSupply() == IERC20(adr).balanceOf(msg.sender)));\r\n        // TODO: make sure the person who invokes this function owns all tokens.\r\n        delete offeredNfts[adr][id]; // DELETE ?\r\n            IERC721(adr).transferFrom(address(this),msg.sender,id);\r\n        \r\n    }\r\n\r\n\r\n    function sellErc20(address adr, uint256 price, uint256 amount) public{\r\n        IERC20(adr).transferFrom(msg.sender,address(this),amount);\r\n        offeredTokens[adr][msg.sender] = token(amount,price);\r\n\r\n    }\r\n\r\n\r\n    function buyErc20(address adr, address seller, uint256 amount ) public payable {\r\n        require(msg.value == offeredTokens[adr][seller].price);\r\n        delete offeredTokens[adr][seller]; // DELETE ?\r\n        IERC20(adr).transfer(msg.sender,amount);\r\n        payable(seller).transfer(msg.value);\r\n\r\n        \r\n    }\r\n}\r\n    ",
  "sourcePath": "C:\\Users\\Baturay\\Desktop\\LibrArt\\48001_term_project\\contracts\\utility.sol",
  "compiler": {
    "name": "solc",
    "version": "0.8.17+commit.8df45f5f.Emscripten.clang"
  },
  "schemaVersion": "3.4.10",
  "updatedAt": "2023-01-17T19:56:21.284Z",
  "devdoc": {
    "kind": "dev",
    "methods": {},
    "version": 1
  },
  "userdoc": {
    "kind": "user",
    "methods": {},
    "version": 1
  }
}